:100000000C942A000C9447000C9447000C94470071
:100010000C9447000C9447000C9447000C94470044
:100020000C9447000C9447000C9447000C94D100AA
:100030000C9447000C9447000C9447000C94470024
:100040000C9447000C9447000C9447000C94470014
:100050000C94470011241FBECFE5D4E0DEBFCDBF16
:1000600010E0A0E6B0E0E8E4F2E002C005900D92F6
:10007000A236B107D9F720E0A2E6B0E001C01D9298
:10008000A336B207E1F70E94F9000C9422010C9408
:1000900000008BBB662311F0C19801C0C19AC09AC1
:1000A00082E08A95F1F700C0C09887EE93E001974F
:1000B000F1F700C0000008958FE19EE40197F1F789
:1000C00000C0000061E088E30E94490061E081E037
:1000D0000E94490061E082E00E94490061E08CE0FA
:1000E0000E94490061E086E00E9449008FE99FE09C
:1000F0000197F1F700C00000089590E4899F600D1A
:100100001124862F61E0815C0C944900CF93DF932A
:10011000EC0160E088810E94490060E08981DF9104
:10012000CF910C944900CF93DF9300D01F92CDB7AD
:10013000DEB76AE00E941601805D8983905D9A8334
:100140001B82CE0101960E9486000F900F900F90A7
:10015000DF91CF9108958EB58C608EBD84EC9BE3CA
:100160009BBD8ABD89B7806189BF089589E783BF38
:100170008FEF8CBF089589E785BD8FEF83BD08950C
:1001800081B3806381BB089510BC89E189B988E996
:100190008AB986E880BD08958BB18079E9F38CB186
:1001A00008951F920F920FB60F9211248F939F9371
:1001B000EF93FF93809162009CB1E82FF0E0E05A4A
:1001C000FF4F90838F5F823018F48093620002C0EB
:1001D00010926200809160008CBF8091610083BDAD
:1001E000FF91EF919F918F910F900FBE0F901F90F5
:1001F00018958F9A8AB38FEF8ABB87B38B6087BBC2
:100200001BBA88B38C7F88BB0E94B6000E94BB00DB
:100210000E94C40078940E945C0061E080E80E9423
:10022000490080E690E00E948600F7CF991B79E0B4
:1002300004C0991F961708F0961B881F7A95C9F776
:0802400080950895F894FFCFAA
:02024800FFFFB6
:00000001FF
