:100000000C9434000C9446000C9446000C9446006A
:100010000C9446000C9446000C9446000C94460048
:100020000C9446000C9446000C9446000C94460038
:100030000C9446000C9446000C940A010C94460063
:100040000C9446000C9446000C94C6000C94460098
:100050000C9446000C9446000C9446000C94460008
:100060000C9446000C94460011241FBECFEFD8E03C
:10007000DEBFCDBF21E0A0E0B1E001C01D92AA30FB
:10008000B207E1F70E943C010C94CD020C940000F1
:10009000E0E8F0E0808182688083E1E8F0E0808140
:1000A0008B61808387E893E190938700809386003B
:1000B000109285001092840087E791E09093890068
:1000C00080938800089584B5826084BD85B583607F
:1000D00085BDEEE6F0E0808182608083A99A8AEF98
:1000E00087BD0895E0EBF0E08081836F8083E1EBD2
:1000F000F0E080818760808378948FEF8093B300F5
:100100008093B40008951092C50081E08093C400EC
:10011000E0ECF0E080818260808380E98093C10020
:1001200086E08093C200089590910101682F691BB9
:10013000609300018093010167FF03C08AEF90E0A4
:1001400004C0662331F084EF91E09093890080939E
:100150008800062E000C770B77FF03C07195619520
:100160007109072E000C880B990B0E94F4012AE9F3
:1001700039E949E95EE30E944A010E9480020E9437
:10018000BC01709303016093020108951F920F92C6
:100190000FB60F9211242F933F934F935F936F935A
:1001A0007F938F939F93AF93BF93EF93FF93809130
:1001B00006019091C600E82FF0E0E95FFE4F9083C2
:1001C0008F5F833018F48093060102C010920601FD
:1001D0008091070180958093B300809108018095FC
:1001E0008093B400809109018F57809309010E9488
:1001F0009400FF91EF91BF91AF919F918F917F916B
:100200006F915F914F913F912F910F900FBE0F9083
:100210001F9018951F920F920FB60F9211242F93D3
:100220003F938F939F93809100018823E1F0809109
:1002300004019091050101969093050180930401BA
:1002400020910201309103018217930761F487E73F
:1002500091E090938900809388001092050110929C
:100260000401109200019F918F913F912F910F9067
:100270000FBE0F901F9018950E9483000E9463008C
:100280000E9448000E9472007894539A84B18A6058
:1002900084B9FFCF0E945E010C9446020E943F0287
:1002A00058F00E94380240F029F45F3F29F00C9486
:1002B0002F0251110C947A020C9435020E945702BD
:1002C00068F39923B1F3552391F3951B550BBB2785
:1002D000AA2762177307840738F09F5F5F4F220FCA
:1002E000331F441FAA1FA9F335D00E2E3AF0E0E8C1
:1002F00032D091505040E695001CCAF72BD0FE2F0B
:1003000029D0660F771F881FBB1F2617370748079E
:10031000AB07B0E809F0BB0B802DBF01FF27935856
:100320005F4F3AF09E3F510578F00C942F020C94E9
:100330007A025F3FE4F3983ED4F38695779567950C
:10034000B795F7959F5FC9F7880F911D969587958B
:1003500097F90895E1E0660F771F881FBB1F6217AA
:1003600073078407BA0720F0621B730B840BBA0B68
:10037000EE1F88F7E09508950E94C3016894B111BB
:100380000C947A0208950E945F0288F09F5798F0BB
:10039000B92F9927B751B0F0E1F0660F771F881F8A
:1003A000991F1AF0BA95C9F714C0B13091F00E94A4
:1003B0007902B1E008950C947902672F782F88278D
:1003C000B85F39F0B93FCCF3869577956795B395CB
:1003D000D9F73EF490958095709561957F4F8F4F3A
:1003E0009F4F0895E89409C097FB3EF4909580953F
:1003F000709561957F4F8F4F9F4F9923A9F0F92FEB
:1004000096E9BB279395F695879577956795B79568
:10041000F111F8CFFAF4BB0F11F460FF1BC06F5F4E
:100420007F4F8F4F9F4F16C0882311F096E911C060
:10043000772321F09EE8872F762F05C0662371F081
:1004400096E8862F70E060E02AF09A95660F771F95
:10045000881FDAF7880F9695879597F9089597F989
:100460009F6780E870E060E008959FEF80EC08955A
:1004700000240A9416161706180609060895002483
:100480000A9412161306140605060895092E0394FD
:10049000000C11F4882352F0BB0F40F4BF2B11F471
:1004A00060FF04C06F5F7F4F8F4F9F4F089557FDD0
:1004B0009058440F551F59F05F3F71F04795880FD2
:1004C00097FB991F61F09F3F79F087950895121669
:1004D00013061406551FF2CF4695F1DF08C0161615
:1004E00017061806991FF1CF8695710561050894C6
:1004F0000895E894BB2766277727CB0197F90895DD
:100500000E945F02E8F09E37E8F09639B8F49E3812
:1005100048F4672F782F8827985FF9CF86957795CD
:10052000679593959539D0F3B62FB1706B0F711D08
:10053000811D20F487957795679593950C94A40277
:100540000C94BF020C947A02882371F4772321F073
:100550009850872B762F07C0662311F499270DC07A
:100560009051862B70E060E02AF09A95660F771F15
:10057000881FDAF7880F9695879597F908959F3F1A
:1005800031F0915020F4879577956795B795880F4E
:0E059000911D9695879597F90895F894FFCFE1
:00000001FF
