:100000000C942A000C943C000C943C000C943C0092
:100010000C943C000C943C000C94B3000C943C00F9
:100020000C943C000C943C000C943C000C943C0060
:100030000C943C000C943C000C943C000C943C0050
:100040000C943C000C943C000C943C000C943C0040
:100050000C943C0011241FBECFE5D4E0DEBFCDBF21
:1000600020E0A0E6B0E001C01D92A636B207E1F79D
:100070000E94E9000C9446010C9400008BBB66239F
:1000800011F0C19801C0C19AC09A82E08A95F1F737
:1000900000C0C09887EE93E00197F1F700C0000020
:1000A00008958FE19EE40197F1F700C0000061E040
:1000B00088E30E943E0061E081E00E943E0061E032
:1000C00082E00E943E0061E08CE00E943E0061E020
:1000D00086E00E943E008FE99FE00197F1F700C0A3
:1000E0000000089590E4899F600D1124862F61E03F
:1000F000815C0C943E000F931F93CF938C01C0E062
:10010000F801EC0FF11D8081882329F060E00E9446
:100110003E00CF5FF5CFCF911F910F910895CF9300
:10012000DF9300D01F92CDB7DEB76AE00E943A019C
:10013000805D8983905D9A831B82CE0101960E9427
:100140007B000F900F900F90DF91CF9108958EB5A7
:100150008C608EBD84EC9BE39BBD8ABD89B78061BA
:1001600089BF789408951F920F920FB60F921124B1
:100170008F939F9381E080936200909165009F5FD1
:1001800090936500909165009C33E0F0809361004E
:1001900010926500909164009F5F9093640090912D
:1001A00064009C3378F0109264008093600080912A
:1001B00063008F5F8093630080916300883110F04B
:1001C000109263009F918F910F900FBE0F901F9020
:1001D00018950E94A7008AB38FEF8ABB87B383600C
:1001E00087BB1BBA88B38C7F88BB0E94510061E03B
:1001F00084E80E943E00809163000E948F0060E0CE
:100200008AE30E943E00809164000E948F0060E0BB
:100210008AE30E943E00809165000E948F008091D9
:1002200062008823E1F361E08AE80E943E00809149
:1002300065000E948F001092620080916100882307
:1002400071F361E087E80E943E00809164000E94A3
:100250008F001092610080916000882301F361E0BB
:1002600084E80E943E00809163000E948F001092FB
:100270006000D5CF991B79E004C0991F961708F04C
:10028000961B881F7A95C9F780950895F894FFCF3B
:00000001FF
