:100000000C942A000C943C000C943C000C943C0092
:100010000C943C000C943C000C943C000C943C0070
:100020000C943C000C943C000C943C000C94B800E4
:100030000C943C000C943C000C943C000C943C0050
:100040000C943C000C943C000C943C000C943C0040
:100050000C943C0011241FBECFE5D4E0DEBFCDBF21
:1000600020E0A0E6B0E001C01D92A336B207E1F7A0
:100070000E94DA000C94FE000C9400008BBB6623F7
:1000800011F0C19801C0C19AC09A82E08A95F1F737
:1000900000C0C09887EE93E00197F1F700C0000020
:1000A00008958FE19EE40197F1F700C0000061E040
:1000B00088E30E943E0061E081E00E943E0061E032
:1000C00082E00E943E0061E08CE00E943E0061E020
:1000D00086E00E943E008FE99FE00197F1F700C0A3
:1000E0000000089590E4899F600D1124862F61E03F
:1000F000815C0C943E00CF93DF93EC0160E088813B
:100100000E943E0060E08981DF91CF910C943E0017
:10011000CF93DF9300D01F92CDB7DEB76AE00E9485
:10012000F200805D8983905D9A831B82CE010196E7
:100130000E947B000F900F900F90DF91CF91089558
:100140008EB58C608EBD84EC9BE39BBD8ABD89B768
:10015000806189BF089510BC89E189B988E98AB9AD
:1001600086E880BD08958BB18079E9F38CB108955C
:100170001F920F920FB60F9211248F939F93EF93BC
:10018000FF93809160009CB1E82FF0E0EF59FF4FA2
:1001900090838F5F823018F48093600002C01092C9
:1001A0006000FF91EF919F918F910F900FBE0F9084
:1001B0001F9018958AB38FEF8ABB87B3836087BB84
:1001C0001BBA88B38C7F88BB0E94AB0078940E94D6
:1001D000510061E080E80E943E0081E690E00E94CC
:1001E0007B00F7CF991B79E004C0991F961708F0A0
:1001F000961B881F7A95C9F780950895F894FFCFCC
:00000001FF
