:100000000C942A000C9447000C9447000C94470071
:100010000C9447000C9447000C9447000C94470044
:100020000C9447000C9447000C9447000C94D500A6
:100030000C9447000C9447000C9447000C94470024
:100040000C9447000C9447000C9447000C94470014
:100050000C94470011241FBECFE5D4E0DEBFCDBF16
:1000600010E0A0E6B0E0ECE8F2E002C005900D92EE
:10007000A236B107D9F720E0A2E6B0E001C01D9298
:10008000A336B207E1F70E94FD000C9444010C94E2
:1000900000008BBB662311F0C19801C0C19AC09AC1
:1000A0008AE08A95F1F700C0C0988FE99FE0019738
:1000B000F1F700C0000008952FEF89EF90E0215084
:1000C00080409040E1F700C0000061E088E30E94BA
:1000D000490061E081E00E94490061E082E00E9405
:1000E000490061E08CE00E94490061E086E00E94E6
:1000F00049008FE79EE30197F1F700C000000895E3
:1001000090E4899F600D1124862F61E0815C0C943E
:100110004900CF93DF93EC0160E088810E944900A1
:1001200060E08981DF91CF910C944900CF93DF93F8
:1001300000D01F92CDB7DEB76AE00E943801805D23
:100140008983905D9A831B82CE0101960E9489006B
:100150000F900F900F90DF91CF9108951DBC1CBCA4
:100160008FE39CE997BD86BD8FB582688FBD8EB544
:100170008A618EBD1BBC1ABC08958DE783BF8FEFCB
:100180008CBF08958DE785BD8FEF83BD089510BCAA
:1001900081E089B9599A88E98AB986E880BD0895CD
:1001A0008BB18079E9F38CB108951F920F920FB64D
:1001B0000F9211248F939F93EF93FF93809162008E
:1001C0009CB1E82FF0E0E05AFF4F90838F5F8230C0
:1001D00018F48093620002C0109262008091600067
:1001E0008CBF8091610083BDFF91EF919F918F91B2
:1001F0000F900FBE0F901F90189581B3806A81BB3E
:100200008AB38FEF8ABB87B38B6087BB1BBA88B377
:100210008C7F88BB0E94BD000E94AE000E94C2007D
:100220000E94C70078940E945C0000ED17E0C8EBC4
:10023000DBE01BBD0ABD2FE78AE39BE32150804032
:100240009040E1F700C00000DBBDCABD2FEF87EA98
:1002500091E6215080409040E1F700C0000061E04D
:1002600080E80E94490080E690E00E948900E1CF8A
:10027000991B79E004C0991F961708F0961B881FF8
:0C0280007A95C9F780950895F894FFCF97
:02028C00FFFF72
:00000001FF
